{
 "scheduleData": "0x01d5062a0000000000000000000000005132a183e9f3cb7c848b0aac5ae0c4f0491b7ab2000000000000000000000000000000000000000000000000000000000000000000000000000000000000000000000000000000000000000000000000000000c000000000000000000000000000000000000000000000000000000000000000000000000000000000000000000000000000000000000000000000000000000000000000000000000000000000000000000000000000000000000000000003f4800000000000000000000000000000000000000000000000000000000000000124abcb5198000000000000000000000000e7fe45579d784dc83b0fed844a65f4ceefde5682000000000000000000000000000000000000000000000000000000000000000000000000000000000000000000000000000000000000000000000000000000000000000000000000000000000000000000000000000000000000000000000002000000000000000000000000000000000000000000000000000000000000000000000000000000000000000000000000000000000000000000000000000000e000000000000000000000000000000000000000000000000000000000000000000000000000000000000000000000000000000000000000000000000000000011547970653a20616767636861696e46455000000000000000000000000000000000000000000000000000000000000000000000000000000000000000",
 "executeData": "0x134008d30000000000000000000000005132a183e9f3cb7c848b0aac5ae0c4f0491b7ab2000000000000000000000000000000000000000000000000000000000000000000000000000000000000000000000000000000000000000000000000000000a0000000000000000000000000000000000000000000000000000000000000000000000000000000000000000000000000000000000000000000000000000000000000000000000000000000000000000000000000000000000000000000000124abcb5198000000000000000000000000e7fe45579d784dc83b0fed844a65f4ceefde5682000000000000000000000000000000000000000000000000000000000000000000000000000000000000000000000000000000000000000000000000000000000000000000000000000000000000000000000000000000000000000000000002000000000000000000000000000000000000000000000000000000000000000000000000000000000000000000000000000000000000000000000000000000e000000000000000000000000000000000000000000000000000000000000000000000000000000000000000000000000000000000000000000000000000000011547970653a20616767636861696e46455000000000000000000000000000000000000000000000000000000000000000000000000000000000000000",
 "id": "0x720f28a27929019f027f7ee28fb518c6683ff07d60f7bb338b592b9daed1e4ea",
 "decodedScheduleData": {
  "target": "0x5132A183E9F3CB7C848b0AAC5Ae0c4f0491B7aB2",
  "value": 0,
  "data": "0xabcb5198000000000000000000000000e7fe45579d784dc83b0fed844a65f4ceefde5682000000000000000000000000000000000000000000000000000000000000000000000000000000000000000000000000000000000000000000000000000000000000000000000000000000000000000000000000000000000000000000000002000000000000000000000000000000000000000000000000000000000000000000000000000000000000000000000000000000000000000000000000000000e000000000000000000000000000000000000000000000000000000000000000000000000000000000000000000000000000000000000000000000000000000011547970653a20616767636861696e464550000000000000000000000000000000",
  "decodedData": {
   "signature": "addNewRollupType(address,address,uint64,uint8,bytes32,string,bytes32)",
   "selector": "0xabcb5198",
   "consensusImplementation": "0xe7FE45579D784DC83B0feD844A65f4cEEFDe5682",
   "verifier": "0x0000000000000000000000000000000000000000",
   "forkID": 0,
   "rollupVerifierType": 2,
   "genesis": "0x0000000000000000000000000000000000000000000000000000000000000000",
   "description": "Type: aggchainFEP",
   "programVKey": "0x0000000000000000000000000000000000000000000000000000000000000000"
  },
  "predecessor": "0x0000000000000000000000000000000000000000000000000000000000000000",
  "salt": "0x0000000000000000000000000000000000000000000000000000000000000000",
  "delay": 259200
 },
 "gitInfo": {
  "commit": "0a9a2f68409e08eed645b6e75d538f52d425bd3a",
  "repo": "https://github.com/agglayer/agglayer-contracts"
 },
 "genesis": "0x0000000000000000000000000000000000000000000000000000000000000000",
 "verifierAddress": "0x0000000000000000000000000000000000000000",
 "consensusContract": "AggchainFEP",
 "consensusContractAddress": "0xe7FE45579D784DC83B0feD844A65f4cEEFDe5682",
 "deployedContracts": {
  "AggchainFEP": "0xe7FE45579D784DC83B0feD844A65f4cEEFDe5682"
 },
 "rollupManagerProxyOwnerTimelock": "0xEf1462451C30Ea7aD8555386226059Fe837CA4EF"
}