{
    "verifierAddress": "0x0459d576A6223fEeA177Fb3DF53C9c77BF84C459",
    "consensusContract": "PolygonPessimisticConsensus",
    "scheduleData": "0x01d5062a0000000000000000000000005132a183e9f3cb7c848b0aac5ae0c4f0491b7ab2000000000000000000000000000000000000000000000000000000000000000000000000000000000000000000000000000000000000000000000000000000c000000000000000000000000000000000000000000000000000000000000000000000000000000000000000000000000000000000000000000000000000000000000000000000000000000000000000000000000000000000000000000003f4800000000000000000000000000000000000000000000000000000000000000184abcb519800000000000000000000000018c45dd422f6587357a6d3b23307e75d42b2bc5b0000000000000000000000000459d576a6223feea177fb3df53c9c77bf84c459000000000000000000000000000000000000000000000000000000000000000c0000000000000000000000000000000000000000000000000000000000000001000000000000000000000000000000000000000000000000000000000000000000000000000000000000000000000000000000000000000000000000000000e000eff0b6998df46ec388bb305618089ae3dc74e513e7676b2e1909694f49cc300000000000000000000000000000000000000000000000000000000000000061547970653a2050657373696d69737469632c2056657273696f6e3a2076302e332e332c2067656e657369733a202f697066732f516d55586e526f5062556d5a75455a43477969486a45736f4e6346567533684c74537668706e664253326d4159550000000000000000000000000000000000000000000000000000000000000000000000000000000000000000000000000000000000000000000000",
    "executeData": "0x134008d30000000000000000000000005132a183e9f3cb7c848b0aac5ae0c4f0491b7ab2000000000000000000000000000000000000000000000000000000000000000000000000000000000000000000000000000000000000000000000000000000a0000000000000000000000000000000000000000000000000000000000000000000000000000000000000000000000000000000000000000000000000000000000000000000000000000000000000000000000000000000000000000000000184abcb519800000000000000000000000018c45dd422f6587357a6d3b23307e75d42b2bc5b0000000000000000000000000459d576a6223feea177fb3df53c9c77bf84c459000000000000000000000000000000000000000000000000000000000000000c0000000000000000000000000000000000000000000000000000000000000001000000000000000000000000000000000000000000000000000000000000000000000000000000000000000000000000000000000000000000000000000000e000eff0b6998df46ec388bb305618089ae3dc74e513e7676b2e1909694f49cc300000000000000000000000000000000000000000000000000000000000000061547970653a2050657373696d69737469632c2056657273696f6e3a2076302e332e332c2067656e657369733a202f697066732f516d55586e526f5062556d5a75455a43477969486a45736f4e6346567533684c74537668706e664253326d4159550000000000000000000000000000000000000000000000000000000000000000000000000000000000000000000000000000000000000000000000",
    "id": "0x0b2a84c9c04f72a7754abba6694cd44d42c127ded35a75e155da158229df8706",
    "decodedScheduleData": {
        "target": "0x5132A183E9F3CB7C848b0AAC5Ae0c4f0491B7aB2",
        "value": "0",
        "data": "0xabcb519800000000000000000000000018c45dd422f6587357a6d3b23307e75d42b2bc5b0000000000000000000000000459d576a6223feea177fb3df53c9c77bf84c459000000000000000000000000000000000000000000000000000000000000000c0000000000000000000000000000000000000000000000000000000000000001000000000000000000000000000000000000000000000000000000000000000000000000000000000000000000000000000000000000000000000000000000e000eff0b6998df46ec388bb305618089ae3dc74e513e7676b2e1909694f49cc300000000000000000000000000000000000000000000000000000000000000061547970653a2050657373696d69737469632c2056657273696f6e3a2076302e332e332c2067656e657369733a202f697066732f516d55586e526f5062556d5a75455a43477969486a45736f4e6346567533684c74537668706e664253326d41595500000000000000000000000000000000000000000000000000000000000000",
        "decodedData": {
            "consensusImplementation": "0x18C45DD422f6587357a6d3b23307E75D42b2bc5B",
            "verifier": "0x0459d576A6223fEeA177Fb3DF53C9c77BF84C459",
            "forkID": "12",
            "rollupVerifierType": "1",
            "genesis": "0x0000000000000000000000000000000000000000000000000000000000000000",
            "description": "Type: Pessimistic, Version: v0.3.3, genesis: /ipfs/QmUXnRoPbUmZuEZCGyiHjEsoNcFVu3hLtSvhpnfBS2mAYU",
            "programVKey": "0x00eff0b6998df46ec388bb305618089ae3dc74e513e7676b2e1909694f49cc30"
        },
        "predecessor": "0x0000000000000000000000000000000000000000000000000000000000000000",
        "salt": "0x0000000000000000000000000000000000000000000000000000000000000000",
        "delay": "259200"
    }
}