{
 "genesis": "0xe3a7d8bae497945ba8ddc51c69564f60ad4c1a990b9c7bdbd27f7929bfa8f272",
 "verifierAddress": "0xE00a3cBFC45241b33c0A44C78e26168CBc55EC63",
 "consensusContract": "PolygonPessimisticConsensus",
 "scheduleData": "0x01d5062a0000000000000000000000005132a183e9f3cb7c848b0aac5ae0c4f0491b7ab2000000000000000000000000000000000000000000000000000000000000000000000000000000000000000000000000000000000000000000000000000000c000000000000000000000000000000000000000000000000000000000000000000000000000000000000000000000000000000000000000000000000000000000000000000000000000000000000000000000000000000000000000000003f4800000000000000000000000000000000000000000000000000000000000000184abcb519800000000000000000000000018c45dd422f6587357a6d3b23307e75d42b2bc5b000000000000000000000000e00a3cbfc45241b33c0a44c78e26168cbc55ec63000000000000000000000000000000000000000000000000000000000000000c0000000000000000000000000000000000000000000000000000000000000001000000000000000000000000000000000000000000000000000000000000000000000000000000000000000000000000000000000000000000000000000000e000dc9aac973a839dc15373ccf3aa0b0d503c1142ceb7d99b0c4fcc4a5c3ad09f0000000000000000000000000000000000000000000000000000000000000061547970653a2050657373696d69737469632c2056657273696f6e3a2076302e322e352c2067656e657369733a202f697066732f516d55586e526f5062556d5a75455a43477969486a45736f4e6346567533684c74537668706e664253326d4159550000000000000000000000000000000000000000000000000000000000000000000000000000000000000000000000000000000000000000000000",
 "executeData": "0x134008d30000000000000000000000005132a183e9f3cb7c848b0aac5ae0c4f0491b7ab2000000000000000000000000000000000000000000000000000000000000000000000000000000000000000000000000000000000000000000000000000000a0000000000000000000000000000000000000000000000000000000000000000000000000000000000000000000000000000000000000000000000000000000000000000000000000000000000000000000000000000000000000000000000184abcb519800000000000000000000000018c45dd422f6587357a6d3b23307e75d42b2bc5b000000000000000000000000e00a3cbfc45241b33c0a44c78e26168cbc55ec63000000000000000000000000000000000000000000000000000000000000000c0000000000000000000000000000000000000000000000000000000000000001000000000000000000000000000000000000000000000000000000000000000000000000000000000000000000000000000000000000000000000000000000e000dc9aac973a839dc15373ccf3aa0b0d503c1142ceb7d99b0c4fcc4a5c3ad09f0000000000000000000000000000000000000000000000000000000000000061547970653a2050657373696d69737469632c2056657273696f6e3a2076302e322e352c2067656e657369733a202f697066732f516d55586e526f5062556d5a75455a43477969486a45736f4e6346567533684c74537668706e664253326d4159550000000000000000000000000000000000000000000000000000000000000000000000000000000000000000000000000000000000000000000000",
 "id": "0x662e382a3c937bcba2a9380c3f60551e072b9fc3754002bfc1cac5badb6cc23e",
 "decodedScheduleData": {
  "target": "0x5132A183E9F3CB7C848b0AAC5Ae0c4f0491B7aB2",
  "value": "0",
  "data": "0xabcb519800000000000000000000000018c45dd422f6587357a6d3b23307e75d42b2bc5b000000000000000000000000e00a3cbfc45241b33c0a44c78e26168cbc55ec63000000000000000000000000000000000000000000000000000000000000000c0000000000000000000000000000000000000000000000000000000000000001000000000000000000000000000000000000000000000000000000000000000000000000000000000000000000000000000000000000000000000000000000e000dc9aac973a839dc15373ccf3aa0b0d503c1142ceb7d99b0c4fcc4a5c3ad09f0000000000000000000000000000000000000000000000000000000000000061547970653a2050657373696d69737469632c2056657273696f6e3a2076302e322e352c2067656e657369733a202f697066732f516d55586e526f5062556d5a75455a43477969486a45736f4e6346567533684c74537668706e664253326d41595500000000000000000000000000000000000000000000000000000000000000",
  "decodedData": {
   "consensusImplementation": "0x18C45DD422f6587357a6d3b23307E75D42b2bc5B",
   "verifier": "0xE00a3cBFC45241b33c0A44C78e26168CBc55EC63",
   "forkID": "12",
   "rollupVerifierType": "1",
   "genesis": "0x0000000000000000000000000000000000000000000000000000000000000000",
   "description": "Type: Pessimistic, Version: v0.2.5, genesis: /ipfs/QmUXnRoPbUmZuEZCGyiHjEsoNcFVu3hLtSvhpnfBS2mAYU",
   "programVKey": "0x00dc9aac973a839dc15373ccf3aa0b0d503c1142ceb7d99b0c4fcc4a5c3ad09f"
  },
  "predecessor": "0x0000000000000000000000000000000000000000000000000000000000000000",
  "salt": "0x0000000000000000000000000000000000000000000000000000000000000000",
  "delay": "259200"
 }
}